S00D00004E6F6465322E737265635F
S1130000C2C00000E0C00000DEC00000DCC0000090
S1130010DAC00000D8C00000D6C00000D4C0000080
S1130020D2C00000D0C00000CEC00000CCC0000090
S1130030CAC00000C8C00000C6C00000C2C300009F
S1130040C2C00000C0C00000BEC00000BCC00000B0
S1130050BAC00000B8C00000B6C00000B4C00000C0
S1130060B2C00000B0C00000AEC00000ACC00000D0
S1130070AAC00000A8C00000A6C00000A4C00000E0
S1130080A2C00000A0C000009EC000009CC00000F0
S11300909AC0000098C0000096C0000095C50000FA
S11300A092C0000090C000008EC000008CC0000010
S11300B08AC0000088C0000086C0000084C0000020
S11300C082C0000080C000007EC000007CC0000030
S11300D07AC0000078C0000076C0000074C0000040
S11300E072C00000FF055106510651065106510623
S11300F051065106FF055106510651065106510697
S11301005106510601065106510651065106510683
S11301105106510651065106510651065106510623
S11301205106510601065106510651065106510663
S11301305106510651065106510651065106510603
S1130140510651064D0651065106510651065106F7
S1130150510651062A06510651065106510651060A
S113016051065106510651065106510651065106D3
S1130170510651061E0651065106510651065106F6
S1130180510651063C0611241FBECFEFD1E2DEBF5B
S1130190CDBF00E00CBF12E0A0E0B2E0E4ECF4E17B
S11301A000E00BBF02C007900D92AA3DB107D9F73A
S11301B022E0AAEDB2E001C01D92AB3FB207E1F725
S11301C04ED10C94600A1CCFEAE7F0E0808180688D
S11301D08083ACE7B0E08C9180628C9380818160F5
S11301E08083808182608083808184608083809822
S11301F08C918F7B8C938C9180688C930895EAE723
S1130200F0E0808180648083808184FFFDCF8091D1
S11302107900089572D472D140E060EE8FE087C116
S11302200895CF92DF92EF92FF920F931F93CF9393
S1130230DF93CDB7DEB72A970FB6F894DEBF0FBEB3
S1130240CDBF0983C12E1A832B833C834D835E83E8
S11302506F83788789879A8780E334D183FDFCCFC5
S1130260602F6295660F607E81E339D1602F6695B9
S11302706695669582E333D16C2D85E330D1D12C1C
S11302801C141D048CF47E0183E0E80EF11C00E0D4
S113029010E0F70161917F0186E3800F20D10F5FA9
S11302A01F4F0C151D05ACF381E037D12A960FB60C
S11302B0F894DEBF0FBECDBFDF91CF911F910F9198
S11302C0FF90EF90DF90CF9008959F92AF92BF92EE
S11302D0CF92DF92EF92FF920F931F93CF93DF930E
S11302E0CDB7DEB72A970FB6F894DEBF0FBECDBFE9
S11302F06C019E01255F3F4FFE0133961192E21778
S1130300F307E1F78CE2DED080FFFCCF81E6DAD0A0
S1130310982E82E6D7D028E0829FC00111249694BB
S11303209694969496949694982A85E6CBD08F705A
S1130330A82ED1F0EE24E394F12CEC0EFD1E82E005
S1130340E80EF11CEA0CF11C8E010D5F1F4F0F2EFD
S1130350F6E6BF2EF02D8B2DB5D0F80181938F01D9
S1130360B394EE15FF05B9F740E061E08CE2DFD00D
S11303709982AA828AE0FE013196D60101900D92FB
S11303808A95E1F7C6012A960FB6F894DEBF0FBE30
S1130390CDBFDF91CF911F910F91FF90EF90DF9030
S11303A0CF90BF90AF909F90089522E0FC012083EE
S11303B021E0218362830895CF93DF931F921F92DC
S11303C0CDB7DEB77894D4D380E5898380E18A837E
S11303D062E0CE010196D6D30F900F90DF91CF91BA
S11303E00895CF93DF9300D0CDB7DEB790E599831E
S11303F01A828B8363E0CE010196C4D30F900F90D1
S11304000F90DF91CF910895FADE91E0853108F0E5
S113041090E0892F08951F93CF93DF93CDB7DEB774
S11304202A970FB6F894DEBF0FBECDBFCE0101965A
S11304304CDF1C81812F74D28B8134D3F4D2612F91
S1130440898543D38F8190E0B9D12A960FB6F89469
S1130450DEBF0FBECDBFDF91CF911F910895CF9323
S1130460DF93CDB7DEB72A970FB6F894DEBF0FBE81
S1130470CDBF35D448D0CEDE64D3BCD2A5DE22D3E2
S11304809BDF69D0F6D069D101C0C5DFBDDF882309
S1130490E1F361E0CE01019688DF09811A812B81A5
S11304A03C814D815E816F81788589859A85B9DE2D
S11304B02FEF89E698E1215080409040E1F700C099
S11304C00000E4CFCF93C82F38D383E01FD38C2F01
S11304D01DD327D3C82F33D38C2FCF910895CF9317
S11304E0DF93D82FC62F29D382E010D38D2F0ED3BC
S11304F08C2F0CD324D3DF91CF9108951ED380EC9D
S113050005D31DC30895F9D2F9DF8EE0DBDF80380F
S113051019F084E192E05FC60895CF93C82F0DD3FC
S11305208C2F87708068F2D20AD3CF9108951F93DD
S1130530CF93DF93182FD62FC42FFFD285E0E6D2B6
S1130540812FE4D28D2FE2D28C2FE0D2F8D2DF912A
S1130550CF911F910895E1E0F1E080818061808373
S1130560A2E0B1E08C9180618C9380818062808371
S11305708081826080838081886080838C91877F82
S11305808C938081806480838C918F7B8C932FEFFC
S113059081EE94E0215080409040E1F700C00000DB
S11305A0E2E0F1E0808180648083E7E0F1E0808133
S11305B08E7F808380818D7F808380818B7F808309
S11305C08081877F808380818F7E808380818F7DFF
S11305D0808380818F7B808380818F77808308955F
S11305E0E2E0F1E080818F7D80838081877F80835A
S11305F08FE99FE00197F1F700C0000080910601A8
S113060090E0982F8827208128602083EFE9FFE07D
S11306103197F1F700C0000020910601E2E0F1E01B
S1130620308130623083822B0895DBCE0895E2E07E
S1130630F1E080818F7B80832FEF81EE94E0215065
S113064080409040E1F700C0000080818064808396
S11306500895811106C0E2E0F1E080818D7F8083FE
S11306600895813029F4E2E0F1E0808182608083A2
S113067008950F931F93CF93DF93B2DFEC0180E0D3
S1130680E8DF8FE5AEDE2FEF89EF90E02150804068
S11306909040E1F700C00000A3DF8C01C817D90720
S11306A081F02FEF89EF90E0215080409040E1F7F6
S11306B000C0000095DFEC018017910719F08C0150
S11306C0F0CFEC0180E08DDEB2DF8ADF9093E602AA
S11306D08093E50281E0BDDF8FE583DE2FEF89EFB4
S11306E090E0215080409040E1F700C0000078DFA6
S11306F08C018C179D0779F02FEF89EF90E0215042
S113070080409040E1F700C000006ADF8017910745
S113071011F08C01F1CF80E064DE2FEF83EC99E0DF
S1130720215080409040E1F700C0000059DF9093D1
S1130730E8028093E70284EC92E04DD5DF91CF91FB
S11307401F910F9108958091E7029091E802089516
S11307508091E5029091E6020895F894E0E7F0E0D4
S1130760808181608083E1EBF0E08081816080831F
S1130770808182608083808184608083E9DF9093BC
S1130780EC028093EB02DFDFBC019093EA028093DA
S1130790E9028091EB029091EC02681B790B8827A7
S11307A077FD8095982FB0D36093ED027093EE029D
S11307B08093EF029093F00278940895809312024C
S11307C008951F920F920FB60F9211240BB60F9239
S11307D0CF92DF92EF92FF920F931F932F933F9349
S11307E04F935F936F937F938F939F93AF93BF9335
S11307F0CF93DF93EF93FF93F3DE9093DD02809327
S1130800DC02C0911202D0E0BC01882777FD8095FC
S1130810982F7AD32091ED023091EE024091EF02AD
S11308205091F002D6D220E030E04FE753E420D4D8
S113083038D3C61BD70BBE01882777FD8095982F28
S113084063D320910A0230910B0240910C02509123
S11308500D020ED46B017C018091DA029091DB02CF
S1130860BE01681B790B882777FD8095982F4CD3A0
S1130870209106023091070240910802509109022A
S1130880F7D320910E0230910F0240911002509143
S113089011029FD29B01AC01C701B60132D201D330
S11308A06B017C018B011C161D065CF481E0D1DE1A
S11308B0063911051CF48C2DB8DE12C086E9B5DEAC
S11308C00FC080E0C6DE882799278C199D098639D8
S11308D0910524F48C2D8195A8DE02C086E9A5DE5D
S11308E0D093DB02C093DA02B89AFF91EF91DF91C3
S11308F0CF91BF91AF919F918F917F916F915F91B4
S11309004F913F912F911F910F91FF90EF90DF90A6
S1130910CF900F900BBE0F900FBE0F901F901895A5
S11309208130E9F018F0823099F14BC080E090E01A
S1130930A0E8B0E480930A0290930B02A0930C0207
S1130940B0930D0287E197EBA1E5B9E3809306022A
S113095090930702A0930802B0930902089580E0DF
S113096090E0A0ECB0E480930A0290930B02A09371
S11309700C02B0930D028AE097EDA3EABCE38093E6
S1130980060290930702A0930802B0930902089507
S113099080E090E0A0E0B1E480930A0290930B021F
S11309A0A0930C02B0930D028DEC9CECACE4BEE37E
S11309B08093060290930702A0930802B093090261
S11309C0089580E090E0A0E8B0E480930A02909358
S11309D00B02A0930C02B0930D0287E197EBA1E503
S11309E0B9E38093060290930702A0930802B093A0
S11309F009020895E1E8F0E08081816080838081CC
S1130A008260808380818B7F808388E893E19093E8
S1130A10870080938600259A87E791E09093890068
S1130A20809388000895CF92DF92EF92FF926B013A
S1130A307C0126E636E646E65FE3C7D1882354F018
S1130A4026E636E646E050E4C701B6010DD3181693
S1130A5054F012C00F2EF6E6CF2EDC2CEC2CFFE364
S1130A60FF2EF02D09C00F2EF6E6CF2EDC2CF6E07B
S1130A70EF2EF0E4FF2EF02D20E034E244E758E4BA
S1130A80C701B601F5D220E030E04AE754E4A1D131
S1130A900DD27093890060938800FF90EF90DF90EF
S1130AA0CF900895682F70E080E090E02DD22DEC77
S1130AB033E34AE95BE3DCD226E636E646E65FE367
S1130AC020C10895819A89980895611110C08823DE
S1130AD061F0899A2FEF86E791E0215080409040A1
S1130AE0E1F700C000008998089589980895882343
S1130AF011F0899A089589980895229A219A209A42
S1130B00279A239881E58CBD2F9A08958EBD0DB444
S1130B1007FEFDCF8FE99FE00197F1F700C00000C9
S1130B2008951EBC0DB407FEFDCF8FE99FE0019729
S1130B30F1F700C000008EB508952F9808952F9AFC
S1130B400895E0E8F0E080818E7F80838081826078
S1130B508083A1E8B0E08C9188608C938C91806153
S1130B608C9380818F7B80838081806880830895CB
S1130B708CE08093B8008FEF8093BB0084E0809377
S1130B80BC000895ECEBF0E0208120FDFDCF6093E4
S1130B90E002FC0120812093E10220FD0CC06230C0
S1130BA050F0DC011196E2EEF2E081E09D91919328
S1130BB08F5F8613FBCF1092DF0288EF80931302BE
S1130BC085EA8093BC0008951F920F920FB60F928E
S1130BD011240BB60F922F933F938F939F93AF9350
S1130BE0BF93EF93FF938091B90090E0FC01389795
S1130BF0E135F10508F055C0EE58FF4F9CC2109244
S1130C00DE02E091DE028091E002E81770F481E0F8
S1130C108E0F8093DE02F0E0EF51FD4F80818093D0
S1130C20BB0085E88093BC0043C08091DF028160F3
S1130C308093DF0284E98093BC003AC0E091DE0235
S1130C4081E08E0F8093DE028091BB00F0E0EF51D3
S1130C50FD4F80832091DE0230E08091E00290E03D
S1130C6001972817390724F485EC8093BC0020C031
S1130C7085E88093BC001CC08091BB00E091DE023B
S1130C80F0E0EF51FD4F80838091DF02816080931B
S1130C90DF0284E98093BC000BC085EA8093BC002A
S1130CA007C08091B9008093130284E08093BC0054
S1130CB0FF91EF91BF91AF919F918F913F912F91B0
S1130CC00F900BBE0F900FBE0F901F901895E0EC85
S1130CD0F0E0908195FFFDCF8093C60008951092B7
S1130CE0C50087E68093C40088E18093C1008EE04C
S1130CF08093C20060E070E087E696E022C2089527
S1130D005058BB27AA270ED075C166D130F06BD1DD
S1130D1020F031F49F3F11F41EF45BC10EF4E09512
S1130D20E7FB51C1E92F77D180F3BA176207730744
S1130D308407950718F071F49EF58FC10EF4E095C1
S1130D400B2EBA2FA02D0B01B90190010C01CA0181
S1130D50A0011124FF27591B99F0593F50F4503E2C
S1130D6068F11A16F040A22F232F342F4427585F1E
S1130D70F3CF469537952795A795F0405395C9F736
S1130D807EF41F16BA0B620B730B840BBAF09150EE
S1130D90A1F0FF0FBB1F661F771F881FC2F70EC08D
S1130DA0BA0F621F731F841F48F487957795679560
S1130DB0B795F7959E3F08F0B3CF9395880F08F049
S1130DC09927EE0F979587950895D9D008F481E077
S1130DD008950CD00FC107D140F0FED030F021F4BB
S1130DE05F3F19F0F0C0511139C1F3C014D198F329
S1130DF09923C9F35523B1F3951B550BBB27AA2798
S1130E0062177307840738F09F5F5F4F220F331F09
S1130E10441FAA1FA9F333D00E2E3AF0E0E830D0D5
S1130E2091505040E695001CCAF729D0FE2F27D0D8
S1130E30660F771F881FBB1F261737074807AB07A6
S1130E40B0E809F0BB0B802DBF01FF2793585F4F1B
S1130E502AF09E3F510568F0B6C000C15F3FECF335
S1130E60983EDCF3869577956795B795F7959F5FE0
S1130E70C9F7880F911D9695879597F90895E1E034
S1130E80660F771F881FBB1F621773078407BA0793
S1130E9020F0621B730B840BBA0BEE1F88F7E095EE
S1130EA0089504D06894B111D9C00895BCD088F0D5
S1130EB09F5790F0B92F9927B751A0F0D1F0660F42
S1130EC0771F881F991F1AF0BA95C9F712C0B1305D
S1130ED081F0C3D0B1E00895C0C0672F782F882770
S1130EE0B85F39F0B93FCCF3869577956795B3959C
S1130EF0D9F73EF490958095709561957F4F8F4F0B
S1130F009F4F0895E89409C097FB3EF4909580950F
S1130F10709561957F4F8F4F9F4F9923A9F0F92FBB
S1130F2096E9BB279395F695879577956795B79539
S1130F30F111F8CFFAF4BB0F11F460FF1BC06F5F1F
S1130F407F4F8F4F9F4F16C0882311F096E911C031
S1130F50772321F09EE8872F762F05C0662371F052
S1130F6096E8862F70E060E02AF09A95660F771F66
S1130F70881FDAF7880F9695879597F90895990F42
S1130F800008550FAA0BE0E8FEEF16161706E8074F
S1130F90F907C0F012161306E407F50798F0621B70
S1130FA0730B840B950B39F40A2661F0232B242B45
S1130FB0252B21F408950A2609F4A140A6958FEF64
S1130FC0811D811D089597F99F6780E870E060E0B6
S1130FD008959FEF80EC089500240A9416161706CE
S1130FE018060906089500240A9412161306140616
S1130FF005060895092E0394000C11F4882352F079
S1131000BB0F40F4BF2B11F460FF04C06F5F7F4F30
S11310108F4F9F4F089557FD9058440F551F59F017
S11310205F3F71F04795880F97FB991F61F09F3FD1
S113103079F087950895121613061406551FF2CFFA
S11310404695F1DF08C0161617061806991FF1CF4A
S113105086957105610508940895E894BB27662771
S11310607727CB0197F908958ADF08F48FEF089565
S11310700BD0C0CFB1DF28F0B6DF18F0952309F00C
S1131080A2CFA7CF1124EACFC6DFA0F3959FD1F357
S1131090950F50E0551F629FF001729FBB27F00D22
S11310A0B11D639FAA27F00DB11DAA1F649F662777
S11310B0B00DA11D661F829F2227B00DA11D621FC6
S11310C0739FB00DA11D621F839FA00D611D221F80
S11310D0749F3327A00D611D231F849F600D211D64
S11310E0822F762F6A2F11249F5750408AF0E1F007
S11310F088234AF0EE0FFF1FBB1F661F771F881F50
S113110091505040A9F79E3F510570F05CCFA6CF97
S11311105F3FECF3983EDCF3869577956795B7953A
S1131120F795E7959F5FC1F7FE2B880F911D969564
S1131130879597F90895EE0FFF1F0590F491E02D20
S113114019940F931F93CF93DF93EC018B010097B6
S113115031F46115710519F480E090E037C06EE058
S113116070E081E090E064D0FC010097A9F380E88E
S113117083830115110571F01387028781E8838346
S11311808091F1029091F202892B21F4F093F20202
S1131190E093F1022097C9F0D187C08783818260F0
S11311A083838091F3029091F402892B71F4F0937C
S11311B0F402E093F3028091F5029091F602892BF8
S11311C021F4F093F602E093F502CF01DF91CF9181
S11311D01F910F9108950F931F93CF93DF93E09185
S11311E0F302F091F402238121FF1BC0EC0100E023
S11311F010E089916091F3027091F402DB0118967A
S1131200ED91FC911997882331F01995892B89F375
S11312100FEF1FEFEECF8AE01995892B11F4C80167
S113122002C08FEF9FEFDF91CF911F910F9108952F
S11312300F931F93CF93DF93869F8001879F100D99
S1131240969F100D1124C8010DD0EC01009721F0D8
S1131250A80160E070E02DD1CE01DF91CF911F9104
S11312600F910895CF93DF938230910510F482E0BB
S113127090E0E091F902F091FA0220E030E0A0E081
S1131280B0E0309739F14081518148175907B8F0DF
S11312904817590771F482819381109729F01396A6
S11312A09C938E9312972CC09093FA028093F90228
S11312B027C02115310531F04217530718F0A90151
S11312C0DB0101C0EF019A01BD01DF010280F3815E
S11312D0E02DD7CF21153105F9F0281B390B243027
S11312E0310580F48A819B816115710521F0FB0130
S11312F09383828304C09093FA028093F902FE01DF
S1131300329644C0FE01E20FF31F81939193225061
S11313103109398328833AC02091F7023091F802C9
S1131320232B41F420910202309103023093F802FE
S11313302093F7022091000230910102211531051A
S113134041F42DB73EB74091040250910502241B8D
S1131350350BE091F702F091F802E217F307A0F4DD
S11313602E1B3F0B2817390778F0AC014E5F5F4FF7
S11313702417350748F04E0F5F1F5093F80240932F
S1131380F7028193919302C0E0E0F0E0CF01DF9196
S1131390CF910895CF93DF93009709F487C0FC01A0
S11313A0329713821282C091F902D091FA022097E7
S11313B081F420813181280F391F8091F7029091A7
S11313C0F8028217930779F5F093F802E093F70295
S11313D06DC0DE0120E030E0AE17BF0750F4129676
S11313E04D915C9113979D014115510509F1DA0165
S11313F0F3CFB383A28340815181840F951F8A1751
S11314009B0771F48D919C911197840F951F0296FF
S11314109183808312968D919C91139793838283F9
S11314202115310529F4F093FA02E093F9023EC044
S1131430D9011396FC93EE9312974D915D91A40FED
S1131440B51FEA17FB0779F480819181840F951FFA
S11314500296D90111969C938E938281938113965F
S11314609C938E931297E0E0F0E08A819B81009731
S113147019F0FE01EC01F9CFCE01029628813981E1
S1131480820F931F2091F7023091F8022817390731
S113149069F4309729F41092FA021092F90202C00A
S11314A013821282D093F802C093F702DF91CF9196
S11314B00895DC0101C06D9341505040E0F7089558
S10714C0F894FFCFCA
S11314C40000FB02200017B75139000080406F125E
S11314D4833C7FF84572726F722077697468207454
S11314E4686520636F6E74726F6C6C65722E205223
S11314F46567697374657273206E6F742070726F9C
S11315047065726C792072657365742E20000A20EC
S113151474686520646174612066726F6D207468F8
S1131524652063616E6374726C3A202564000A203A
S113153474686520646174612066726F6D207468D8
S1131544652063616E6374726C20616674657220D5
S1131554626974206D6F64696679696E67202873A3
S1131564657474696E6720746865206C6173742093
S113157433206269747320746F207A65726F3A2021
S113158425640A000A63616C6962726174696F6E2E
S10D159420636F6D706C65746500D0
S9030000FC
