S00C00004D61696E2E7372656393
S11300000C9477030C9494030C9494030C9494032D
S11300100C9494030C9494030C9494030C94940300
S11300200C9494030C9494030C9494030C949403F0
S11300300C9494030C9494030C9494030C949403E0
S11300400C9494030C94890A0C9494030C949403D4
S11300500C9494030C9494030C9494030C949403C0
S11300600C9494030C9494030C9494030C949403B0
S1130070084AD73B3BCE016E84BCBFFDC12F3D6C0B
S113008074319ABD56833DDA3D00C77F11BED9E471
S1130090BB4C3E916BAAAABE000000803F0000004A
S11300A00000005C00000C000C007C287C2858DC5C
S11300B068002410480028542840000C00000078F0
S11300C084008478000054385400107C1000804070
S11300D00000101010000040000060100C003854A4
S11300E03800487C40004864580044542C001C10DC
S11300F07C005C5424003854240064140C006854BC
S11301002C004854380000480000804800001028A3
S113011044002828280044281000045408003844C7
S11301205C00781478007C542800384428007C440F
S113013038007C5444007C140400384474007C105F
S11301407C00447C440020403C007C106C007C40DB
S113015040007C187C0078103C00384438007C1443
S113016008003844B8007C14680048542400047C17
S113017004007C407C003C603C007C307C006C10C3
S11301806C000C700C0064544C00007C44000C1097
S11301906000447C000008040800808080000004A3
S11301A00800304878007C48300030484800304827
S11301B07C00306850001078140090A878007C0807
S11301C0700050744000808074007C106800447C8F
S11301D04000781078007808700030483000F82823
S11301E010003048F8007810080050582800083CE7
S11301F0480038407800384038007820780048308B
S1130200480098A078004868580010788400007C62
S113021000008478100008040804000000000000B6
S1130220005F00000007000700147F147F14242AD5
S11302307F2A1223130864623649552250000503AD
S11302400000001C2241000041221C00082A1C2A34
S11302500808083E0808005030000008080808088C
S1130260006060000020100804023E5149453E0031
S1130270427F400042615149462141454B311814A7
S1130280127F1027454545393C4A494930017109D7
S113029005033649494936064949291E00363600C0
S11302A000005636000000081422411414141414DB
S11302B041221408000201510906324979413E7E67
S11302C01111117E7F494949363E414141227F4106
S11302D041221C7F494949417F090901013E4141AD
S11302E051327F0808087F00417F41002040413F90
S11302F0017F081422417F404040407F0204027F76
S11303007F0408107F3E4141413E7F090909063EB2
S11303104151215E7F091929464649494931010164
S11303207F01013F4040403F1F2040201F7F201895
S1130330207F63140814630304780403615149455E
S11303404300007F4141020408102041417F000026
S11303500402010204404040404000010204002025
S1130360545454787F4844443838444444203844EE
S113037044487F3854545418087E09010208145420
S1130380543C7F0804047800447D40002040443DF0
S113039000007F10284400417F40007C041804784A
S11303A07C0804047838444444387C141414080841
S11303B01414187C7C080404084854545420043F42
S11303C04440203C4040207C1C2040201C3C4030C9
S11303D0403C44281028440C5050503C4464544C35
S11303E044000836410000007F0000004136080048
S11303F00201030201000000000000000000065F8B
S11304005F060000000007070007070000147F7F55
S1130410147F7F1400242E6B6B3A12000046663062
S1130420180C666200307A4F5D377A48000407037F
S11304300000000000001C3E634100000000416316
S11304403E1C000000082A3E1C1C3E2A0808083EE8
S11304503E0808000000A0E0600000000008080852
S11304600808080000000060600000000060301808
S11304700C060301003E7F594D7F3E000042427F3F
S11304807F40400000627359496F6600002263494F
S1130490497F360000181C16137F7F10002767451C
S11304A0457D3900003C7E4B49793000000363717F
S11304B0190F070000367F49497F360000064F496F
S11304C0693F1E000000006C6C0000000000A0ECFE
S11304D06C00000000081C36634100000014141472
S11304E01414140000004163361C08000002035178
S11304F0590F0600003E7F415D5D1F1E007C7E1388
S1130500137E7C0000417F7F49497F36001C3E6397
S11305104141632200417F7F41637F1C00417F7F13
S1130520495D416300417F7F491D0103001C3E6317
S113053041517372007F7F08087F7F000000417F74
S11305407F41000000307040417F3F0100417F7FC8
S1130550081C776300417F7F41406070007F7F0605
S11305600C067F7F007F7F060C187F7F001C3E6394
S113057041633E1C00417F7F49090F06001E3F2155
S1130580717F5E0000417F7F19396F460026674DF9
S1130590597B32000003417F7F410300007F7F408D
S11305A0407F7F00001F3F60603F1F00007F7F305F
S11305B018307F7F0063771C081C776300074F782F
S11305C0784F0700006773594D47637100007F7FC0
S11305D041410000000103060C1830600000414155
S11305E07F7F000000080C0603060C080080808052
S11305F08080808080000003070400000020745481
S1130600543C784000413F7F44447C3800387C446B
S1130610446C280000307848493F7F4000387C54BF
S1130620545C180000487E7F490302000098BCA473
S1130630A4F87C0400417F7F08047C780000447D9A
S11306407D4000000040C484FD7D000000417F7FA8
S113065010386C440000417F7F400000007C7C0C1B
S1130660180C7C78007C7C04047C780000387C4482
S1130670447C38000084FCF8A4243C1800183C2472
S1130680A4F8FC8400447C78441C180000485C54A2
S1130690547424000000043E7F442400003C7C4049
S11306A0403C7C40001C3C60603C1C00003C7C6086
S11306B030607C3C00446C3810386C44009CBCA016
S11306C0A0FC7C00004C64745C4C64000008083E90
S11306D07741410000000000777700000041417736
S11306E03E08080000020301030203010000112474
S11306F01FBECFEFD4E0DEBFCDBF13E0A0E0B1E07A
S1130700E8EEFBE202C005900D92A231B107D9F7E1
S113071023E0A2E1B3E001C01D92A639B207E1F7DC
S11307200E9463060C94F2150C940000BB98089583
S113073080930014B399FECF809100140895982FEC
S1130740969596959695E62FF0E020E8929FE00D19
S1130750F11D1124F85E4081877021E030E0B90179
S113076002C0660F771F8A95E2F7CB01842B808342
S1130770089540E050E070E060E00FC0F901E80F38
S1130780F91F108280589F4F8115E4E09E07B1F74E
S11307904F5F5F4F4038510529F0872F962F9A01FC
S11307A0385EECCF0895CF92DF92EF92FF920F93D1
S11307B01F93CF93DF93E12CF12CC12CD12C18C0C3
S11307C0CE010E94F70AC7010E94FE0AF801808147
S11307D090E00E94C60A219600581F4FC830D105E8
S11307E079F7FFEFEF1AFF0A80E8E816F10429F021
S11307F08701185ECC2DDD2DE3CFDF91CF911F91C2
S11308000F91FF90EF90DF90CF9008952F923F9239
S11308104F925F926F927F928F929F92AF92BF920C
S1130820CF92DF92EF92FF920F931F93CF93DF93B8
S113083000D01F92CDB7DEB7C62ED12CA22EB12C7C
S113084026014A0C5B1CC414D504ECF5DB82CA8275
S1130850882E912C642E712C7401E60CF71C182F31
S1130860998281E0A81AB10891E0691A71088E147E
S11308709F040CF5212E3980002329F0622D8A81F2
S11308800E949F0312C0EA81FB81EC15FD0549F02B
S1130890AE16BF0631F02814390419F0621473043B
S11308A021F4622D8A810E949F03FFEF2F1A3F0AD1
S11308B02E143F040CF38A819B8101969B838A83C7
S11308C084159505A4F20F900F900F90DF91CF91AE
S11308D01F910F91FF90EF90DF90CF90BF90AF905A
S11308E09F908F907F906F905F904F903F902F904C
S11308F008950E94920D0E940E0740E060EE8FE082
S11309000E9423070895CF92DF92EF92FF920F93F4
S11309101F93CF93DF93CDB7DEB72A970FB6F89422
S1130920DEBF0FBECDBF0983C12E1A832B833C8348
S11309304D835E836F83788789879A8780E30E94DB
S1130940E80683FDFBCF602F6295660F607E81E32E
S11309500E94FA06602F66956695669582E30E946A
S1130960FA066C2D85E30E94FA06D12C1C141D0492
S113097094F47E0183E0E80EF11C00E010E0F7013E
S113098061917F0186E3800F0E94FA060F5F1F4F7B
S11309900C151D05A4F381E00E9416072A960FB6D4
S11309A0F894DEBF0FBECDBFDF91CF911F910F91A1
S11309B0FF90EF90DF90CF9008959F92AF92BF92F7
S11309C0CF92DF92EF92FF920F931F93CF93DF9317
S11309D0CDB7DEB72A970FB6F894DEBF0FBECDBFF2
S11309E07C019E01255F3F4FFE0133961192E21771
S11309F0F307E1F78CE20E94E80680FD0BC0198240
S1130A001A828AE0FE013196D70101900D928A95EF
S1130A10E1F741C081E60E94E806982E82E60E9432
S1130A20E80628E0829FC001112496949694969437
S1130A3096949694982A85E60E94E8068F70A82ECC
S1130A40D9F0CC24C394D12CCC0EDD1E82E0C80E88
S1130A50D11CCA0CD11C8E010D5F1F4F0F2EF6E660
S1130A60BF2EF02D8B2D0E94E806F80181938F0193
S1130A70B394EC15FD05B1F740E061E08CE20E940F
S1130A8023079982AA828AE0FE013196D701019058
S1130A900D928A95E1F7C7012A960FB6F894DEBF46
S1130AA00FBECDBFDF91CF911F910F91FF90EF90BB
S1130AB0DF90CF90BF90AF909F900895BF92CF9258
S1130AC0DF92EF92FF920F931F93CF93DF93EC018A
S1130AD0162FC42E0E94A7050E94A90BE82EF92EFA
S1130AE084E00E949803B82E0E949505D82E0E9497
S1130AF0A20B082F0E94A60B91E0988398E099839B
S1130B00BA82CB82DC82ED82FE820F8388871987CA
S1130B10CE01DF91CF911F910F91FF90EF90DF9065
S1130B20CF90BF900895BA98089586B382FB882722
S1130B3080F991E08927089584E00E9498038093C6
S1130B40130385E00E949803809312030895CF93C2
S1130B50DF9384E00E949803C82FD0E080911303B0
S1130B60C81BD10985E00E949803282F30E04091EA
S1130B701203BE01C901841B9109DF91CF9108952D
S1130B80CF93DF930E94A705C82FD92F7F936F932C
S1130B9029E131E03F932F930E947C12DF93CF939E
S1130BA089E291E09F938F930E947C128DB79EB748
S1130BB008960FB6F8949EBF0FBE8DBFDF91CF91FC
S1130BC008958F929F92AF92BF92CF92DF92EF924D
S1130BD0FF920E94A7056B017C01CB018B5B9F4FA9
S1130BE08B38910530F4C7018B5B9F4F8B3891058F
S1130BF098F1B601882777FD8095982F0E94680F99
S1130C004B015C01B701882777FD8095982F0E94DE
S1130C10680FA50194010E94780E20EE3EE245E69D
S1130C2052E40E9444106B017C0120E030E0A901F1
S1130C300E94CB0E882354F420E030E044EB53E4CC
S1130C40C701B6010E94050E6B017C01C701B60104
S1130C500E94350FCB0102C08FEF9FEFFF90EF9002
S1130C60DF90CF90BF90AF909F908F900895CF93D7
S1130C700E94E1058D329105C0F09C012B53314057
S1130C802E323105A0F0225F3E4F2A35310588F01F
S1130C902A5531092A35310570F02A5531092A358A
S1130CA0310558F0019661F40AC0C1E009C0C1E001
S1130CB007C0C2E005C0C0E003C0C3E001C0C4E097
S1130CC08C2FCF910895CF93DF93CDB7DEB72A97BA
S1130CD00FB6F894DEBF0FBECDBFF8940E94F60D98
S1130CE00E943D070E94A70D0E9496030E94C90A14
S1130CF00E9493050E94180B0E949C050E9479048F
S1130D000E940D082FEF8FE791E021508040904022
S1130D10E1F700C000C00E94A909482F60E0CE019D
S1130D2001960E945E0509811A812B813C814D81C7
S1130D305E816F81788589859A850E9483040E94EB
S1130D401209AFEFBFE3E2E0A150B040E040E1F7A9
S1130D5000C000000E94A7050E94A409DC011D96A2
S1130D608D919C911E97892BB1F00E949505882343
S1130D7091F0BFEFEFEFF2E0B150E040F040E1F767
S1130D8000C000C00E94A409DC011D96ED91FC91F5
S1130D901E970995D4CF0E94A409FC0182819381F6
S1130DA08953914061F60E949505882341F22FEF03
S1130DB08FEF92E0215080409040E1F700C000C0E6
S1130DC081E00E94610D0E94C10A0E949807B7CF7A
S1130DD0CF93C82F0E94A30D83E00E949A0D8C2FFD
S1130DE00E949A0D0E949E0DC82F0E94A50D8C2F63
S1130DF0CF910895CF93DF93D82FC62F0E94A30DD0
S1130E0082E00E949A0D8D2F0E949A0D8C2F0E94D1
S1130E109A0D0E94A50DDF91CF9108950E94A30D14
S1130E2080EC0E949A0D0E94A50D0895CF93C82FBF
S1130E300E94A30D8C2F877080680E949A0D0E94D7
S1130E40A50DCF9108951F93CF93DF93182FD62F1D
S1130E50C42F0E94A30D85E00E949A0D812F0E9449
S1130E609A0D8D2F0E949A0D8C2F0E949A0D0E942C
S1130E70A50DDF91CF911F91089585B7806885BF37
S1130E8080B7806280BF0895E0911E03F0911F0334
S1130E900184F285E02DF0931D03E0931C03058487
S1130EA0F685E02D099508950E94180B80E00E94B4
S1130EB0F70A80E00E94FE0A84E491E09F938F93F6
S1130EC00E94920B81E00E94F70A80E00E94FE0AD1
S1130ED081E591E09F938F930E94920B0F900F9066
S1130EE00F900F900895FF920F931F93CF93DF936A
S1130EF08C01EB01F42E8FE090E00E94AC10FC0119
S1130F0013830283F4821682158210861782128656
S1130F10118614861386D687C5878EEB91E091835C
S1130F208083CF01DF91CF911F910F91FF9008959E
S1130F30DF92EF92FF920F931F93CF93DF937C0185
S1130F400E94180BF701C185D285209709F45DC072
S1130F5080E00E94F70A80E00E94FE0A0DE411E09E
S1130F601F930F930E94920BEB85FC8583818F93D3
S1130F7082818F930E94920B1F930F930E94920B76
S1130F8081E00E94F70A80E00E94FE0A81EC91E071
S1130F909F938F930E94920B8B818F938A818F935F
S1130FA00E94920B0F80D885C02D8DB79EB70A96EC
S1130FB00FB6F8949EBF0FBE8DBF2097F9F06894CA
S1130FC0DD24D1F80EEB11E08D2D0E94F70A80E0AC
S1130FD00E94FE0A1F930F930E94920B8B818F93A2
S1130FE08A818F930E94920BD3940F80D885C02D51
S1130FF00F900F900F900F90209731F7F701818594
S1131000928590931D0380931C03DF91CF911F91D0
S11310100F91FF90EF90DF900895EF92FF920F935E
S11310201F93CF93DF9340E060E070E084EC91E0A5
S11310300E947307EC0190931F0380931E0341E009
S113104061EC79E08EEC91E00E9473079A878987BE
S1131050E0911E03F0911F03C185D285FC87EB87C5
S113106041E060E070E088ED91E00E9473078C013C
S11310709A878987FC01D487C38741E064E477E0D9
S113108080EE91E00E9473077C01F80192878187CA
S1131090FC011487038742E06BEC78E085EE91E075
S11310A00E947307F70190878783FC01F682E5822B
S11310B01487038742E060E070E089E391E00E94D6
S11310C073078C0198878F83FC01D683C583809135
S11310D01E0390911F039487838743E064EE78E0B6
S11310E08AEE91E00E947307EC01F80190878783F0
S11310F01E830D8380911E0390911F039C878B8711
S113110041E065EF78E085EF91E00E9473077C0190
S11311109A878987FC01D487C38742E06EEF78E021
S11311208AEF91E00E9473078C01F701908787830F
S1131130FC01F682E582D487C38743E068E079E066
S113114081E092E00E947307F80190878783FC0195
S113115016830583D487C38744E064E577E088E099
S113116092E00E947307FC0198878F83D683C5831E
S113117080911E0390911F039487838790931D038E
S113118080931C030E949807DF91CF911F910F91C8
S1131190FF90EF9008950E94180B2FEF8FE791E0D6
S11311A0215080409040E1F700C000C080911E03B0
S11311B090911F03FC012185328530931D032093F8
S11311C01C030E94980708950E94180BE0911E03C7
S11311D0F0911F030184F285E02D0780F085E02D56
S11311E0878190850E949807089510921803809132
S11311F01E0390911F030E949807089581E0809335
S1131200180380911E0390911F030E94980708956C
S113121082E08093180380911E0390911F030E9423
S1131220980708950E94C0050E9437068230C1F5D0
S1131230E0911C03F0911D0385819681892B09F4AB
S113124082C08481813009F47EC00E94F70A80E064
S11312500E94FE0AE0911C03F0911D0381818F938B
S113126080818F930E94920BE0911C03F0911D03E7
S11312700580F681E02DF0931D03E0931C03848127
S11312800E94F70A80E00E94FE0A81EC91E09F939D
S11312908F930E94920B0F900F900F900F900895D0
S11312A00E9437068330A9F5E0911C03F0911D03D9
S11312B087819085892B09F446C084810E94F70AAE
S11312C080E00E94FE0AE0911C03F0911D038181DD
S11312D08F9380818F930E94920BE0911C03F09175
S11312E01D030780F085E02DF0931D03E0931C039C
S11312F084810E94F70A80E00E94FE0A81EC91E05A
S11313009F938F930E94920B0F900F900F900F90CA
S113131008950E943706811116C080911E03909192
S11313201F03E0911C03F0911D0342815381FC01D2
S1131330228133814217530731F090931D03809328
S11313401C030E949807089580911C0390911D032B
S11313500895809118030895F89489B7826089BF2D
S113136083B7846083BF83B78D7F83BF83B7816076
S113137083BF83B78F7B83BF83B7877F83BF789413
S113138008950F931F93CF93DF93CDB7DEB76E9776
S11313900FB6F894DEBF0FBECDBF109214031092A7
S11313A015031092160310921703E0911E03F09197
S11313B01F038185928590931D0380931C030E94D3
S11313C0180B82E00E94F70A80E00E94FE0A8DE07A
S11313D092E09F938F930E94920B83E00E94F70AFE
S11313E080E00E94FE0A8AE192E09F938F930E941C
S11313F0920B0E94AC090F900F900F900F902FEF5B
S11314008FE791E0215080409040E1F700C000C098
S11314104091180361E0CE0145960E945E050D8956
S11314201E892F89388D498D5A8D6B8D7C8D8D8DBC
S11314309E8D0E948304CE010B960E94DD048D854F
S11314408130E9F60E94180B80E00E94FE0A80E0D9
S11314500E94F70A87E292E09F938F930E94920B77
S11314604091180360E0CE0101960E945E05098157
S11314701A812B813C814D815E816F8178858985BC
S11314809A850E94830480E00E94FE0A81E00E9403
S1131490F70A6091140370911503809116039091DB
S11314A017030E943A0F1F926F9387E392E09F9372
S11314B08F930E94920B2FEF8FEF97E7215080407C
S11314C09040E1F700C00000E0911C03F0911D037F
S11314D08185928590931D0380931C030E94980735
S11314E0109214031092150310921603109217030E
S11314F00F900F900F900F900F900F906E960FB665
S1131500F894DEBF0FBECDBFDF91CF911F910F9135
S113151008951F920F920FB60F9211242F933F93A9
S11315204F935F936F937F938F939F93AF93BF93E7
S1131530EF93FF9327E836E149E55DE360911403F7
S11315407091150380911603909117030E94050E64
S113155060931403709315038093160390931703F9
S1131560FF91EF91BF91AF919F918F917F916F9177
S11315705F914F913F912F910F900FBE0F901F904D
S1131580189580911E0390911F0308958093001273
S11315900895E0E0F0E18EEA808381EA80838AEDB9
S11315A0808382E1808388EC808388EA80838FE370
S11315B0808385ED808380E8808381E8808380E573
S11315C0808389ED808381E2808380E2808382E06E
S11315D080838BED808380E380838DEA8083108217
S11315E084EA808386EA80838FEA8083089590EB7F
S11315F0980F9093001080931903089580931A0311
S1131600982F9F70E0E0F0E1908382958F70805F67
S1131610808308950E94F70A80E00E94FE0A80E811
S113162090E0E0E0F2E1108201970097E1F708957D
S1131630CF93C0E08C2F0E940A0BCF5FC830D1F744
S113164080E00E94FE0A80E00E94F70ACF9108958C
S11316501F93CF93DF93182F809119030E94F70AE9
S113166080911A030E94FE0A90910A01983059F45D
S1131670C12FD0E0CC0FDD1FCC0FDD1FCC0FDD1F41
S1131680CB50DD4F1AC0953071F4212F30E0205239
S11316903109E901CC0FDD1FCC0FDD1FC20FD31FB1
S11316A0C65EDD4F0AC0943041F4C12FD0E0CC0FA8
S11316B0DD1FCC0FDD1FC25EDF4F20911A03892F7F
S11316C090E0820F911D813891057CF0809119037F
S11316D08F5F0E94F70A80E00E94FE0A809119033E
S11316E0883019F480E00E94F70A80910A01882367
S11316F0A9F080E090E0A0E0B2E1FE01E80FF91F5C
S1131700E491EC9320911A032F5F20931A0301961E
S113171020910A0130E0821793077CF3DF91CF9187
S11317201F910895CF93DF93CDB7DEB7FE013596B1
S113173061917191AF018BE091E00E94BD12DF9144
S1131740CF91089586B386958170089586B381708C
S11317500895CF9386E00E949803C82F87E00E94E3
S11317609803982F8C2FCF91089580931B03109288
S1131770220384E08093570380E18093200388E070
S1131780809356030E94211287E00E94980390E000
S11317900E9426120E9421128F719078992324F4BA
S11317A00197806E9F6F019680938B030E94211294
S11317B08F709078992324F40197806F9F6F01961E
S11317C08093210310921403109258030895FF92FA
S11317D00F931F93CF93DF93A9E5B3E04C91E4E219
S11317E0F3E05081D0912003DC93C0915603C08371
S11317F02091580330E0223031058CF0AAE5B3E0A3
S1131800E5E2F3E081E090E06C9170814D935193B7
S11318100196821793071CF4572F462FF5CF80911A
S11318205703813051F028F0823059F0833069F049
S11318300FC0D150D09320030BC0DF5FD09320039F
S113184007C0C150C093560303C0CF5FC093560373
S113185081E492E00E94901280912003803220F46F
S113186080915603803138F081E0809322038FE425
S113187092E00E94901280915803882311F109E5A7
S113188013E0C0E0D0E0FF24F394F80191918F01BC
S11318908091200398130EC0FE01EC5DFC4F9081F3
S11318A080915603981306C0F09222038EE692E0CC
S11318B00E94901221968091580390E0C817D9078E
S11318C024F39091200380918B03981328C0909166
S11318D0560380912103981322C0809114038F5FD3
S11318E0809314030E9421128F719078992324F419
S11318F00197806E9F6F019680938B030E94211243
S11319008F709078992324F40197806F9F6F0196CC
S113191080932103809158038F5F80935803DF9154
S1131920CF911F910F91FF90089580915703809359
S113193023030E943706809357031F928F938FE8E7
S113194092E09F938F930E947C12809157030F9093
S11319500F900F900F908430A9F090912303911170
S113196003C0813059F40EC0913019F4882351F02A
S11319700895923019F4833049F404C0933031F45B
S1131980823021F4809123038093570308950F93A9
S1131990660F660F01E024E044E0880F880F0E9480
S11319A006040F9108956F927F928F929F92AF9247
S11319B0BF92CF92DF92EF92FF920F931F93CF9338
S11319C0DF930E94B903A12CB12C612C712C0F2E32
S11319D0F9E5CF2EF3E0DF2EF02D862C972C5DC099
S11319E080915603992787FD90958A159B0561F48C
S11319F080912003992787FD90958E159F0521F4EA
S1131A00B5010E94C70C3AC080912103992787FD34
S1131A1090958A159B0529F08091580381110DC07A
S1131A202DC080918B03992787FD90958E159F0576
S1131A3099F7B5010E94C70C21C08601C82DD92D84
S1131A40F80181918F01992787FD90958E159F0547
S1131A5071F4FE01EC5DFC4F8081992787FD909520
S1131A608A159B0521F4B501C7010E94C70C219674
S1131A702091580330E0C217D30714F3FFEFEF1A95
S1131A80FF0A80E2E816F10409F0AACFEFEFAE1ADC
S1131A90BE0AF0E1AF16B10419F0E62CF72CA0CF82
S1131AA00E94D303DF91CF911F910F91FF90EF908C
S1131AB0DF90CF90BF90AF909F908F907F906F906A
S1131AC00895CF93C82F0E94B50B26C00E94D30C53
S1131AD00E94950C0E94E70BC1110AC02FEF8FE7FB
S1131AE091E0215080409040E1F700C000C014C054
S1131AF0C13051F422E383E391E0215080409040CF
S1131B00E1F700C000C008C0C23031F48FEF9FEB92
S1131B100197F1F700C00000809122038823B1F2FD
S1131B20CF910895BD9ABF9ABC9ABE9881E58DB9AC
S1131B30C49A08958FB9779BFECF08951FB8779BF9
S1131B40FECF8FB10895C4980895C49A0895EF9272
S1131B50FF920F931F93CF93DF9386EA92E00E9444
S1131B60901280E090E00E942612C0E0D8E100E0EC
S1131B7010E00E94211288839881981711F00F5F5A
S1131B801F4F2196C11580E2D80799F780E090E0B5
S1131B900E942612C0E0D8E1E12CF12C0E9421120F
S1131BA09881981719F08FEFE81AF80A2196C11551
S1131BB080E2D80799F7FF92EF921F930F938CEB73
S1131BC092E09F938F930E947C120F900F900F903E
S1131BD00F900F900F90DF91CF911F910F91FF9075
S1131BE0EF9008955D9BFECF8CB9089510BC8FE1F2
S1131BF089B988E18AB986E880BD60E070E082EF47
S1131C009DE00E94311208955058BB27AA270ED098
S1131C10FAC1EBD130F0F0D120F031F49F3F11F450
S1131C201EF4BBC10EF4E095E7FBB1C1E92FFCD172
S1131C3080F3BA17620773078407950718F071F4E5
S1131C409EF514C20EF4E0950B2EBA2FA02D0B01B5
S1131C50B90190010C01CA01A0011124FF27591BED
S1131C6099F0593F50F4503E68F11A16F040A22FF3
S1131C70232F342F4427585FF3CF46953795279564
S1131C80A795F0405395C9F77EF41F16BA0B620B63
S1131C90730B840BBAF09150A1F0FF0FBB1F661FAA
S1131CA0771F881FC2F70EC0BA0F621F731F841FED
S1131CB048F4879577956795B795F7959E3F08F013
S1131CC0B3CF9395880F08F09927EE0F97958795D2
S1131CD008958BD158F080E891E009F49EEF8CD1FF
S1131CE028F040E851E059F45EEF09C056C1BEC186
S1131CF0E92FE07899D168F3092E052AC1F3261754
S1131D0037074807590738F00E2E07F8E02569F021
S1131D10E025E0640AC0EF6307F8009407FADB01EA
S1131D20B9019D01DC01CA01AD01EF9345D06BD12E
S1131D300AD05F91552331F02BED3FE049E450FD8B
S1131D4049EC63CF0895DF93DD27B92FBF7740E8CF
S1131D505FE31616170648075B0710F4D92F8DD1D9
S1131D609F938F937F936F93F2D1E0E7F0E018D1C4
S1131D704AD12F913F914F915F9192D1DD2349F048
S1131D809058A2EA2AED3FE049EC5FE3D0785D2762
S1131D904DDFDF9138C1D7D008F481E008952CD10C
S1131DA040F023D130F021F45F3F19F0F0C051111D
S1131DB05EC1F3C039D198F39923C9F35523B1F324
S1131DC0951B550BBB27AA2762177307840738F0A6
S1131DD09F5F5F4F220F331F441FAA1FA9F333D005
S1131DE00E2E3AF0E0E830D091505040E695001CB9
S1131DF0CAF729D0FE2F27D0660F771F881FBB1F75
S1131E00261737074807AB07B0E809F0BB0B802D4E
S1131E10BF01FF2793585F4F2AF09E3F510568F09A
S1131E20B6C025C15F3FECF3983EDCF38695779509
S1131E306795B795F7959F5FC9F7880F911D96959C
S1131E40879597F90895E1E0660F771F881FBB1FF8
S1131E50621773078407BA0720F0621B730B840BA5
S1131E60BA0BEE1F88F7E095089504D06894B11179
S1131E70FEC00895E1D088F09F5790F0B92F9927BC
S1131E80B751A0F0D1F0660F771F881F991F1AF081
S1131E90BA95C9F712C0B13081F0E8D0B1E0089525
S1131EA0E5C0672F782F8827B85F39F0B93FCCF3A6
S1131EB0869577956795B395D9F73EF49095809577
S1131EC0709561957F4F8F4F9F4F0895E89409C097
S1131ED097FB3EF490958095709561957F4F8F4F59
S1131EE09F4F9923A9F0F92F96E9BB279395F6956F
S1131EF0879577956795B795F111F8CFFAF4BB0FED
S1131F0011F460FF1BC06F5F7F4F8F4F9F4F16C050
S1131F10882311F096E911C0772321F09EE8872FDA
S1131F20762F05C0662371F096E8862F70E060E096
S1131F302AF09A95660F771F881FDAF7880F96950F
S1131F40879597F90895990F0008550FAA0BE0E8B3
S1131F50FEEF16161706E807F907C0F01216130667
S1131F60E407F50798F0621B730B840B950B39F4A7
S1131F700A2661F0232B242B252B21F408950A260D
S1131F8009F4A140A6958FEF811D811D089597F94D
S1131F909F6780E870E060E008959FEF80EC08950B
S1131FA0DF93CF931F930F93FF92EF92DF927B0106
S1131FB08C01689405C0DA2EEF0172D0FE01E8941A
S1131FC0A5912591359145915591AEF3EF012EDE02
S1131FD0FE019701A801DA9479F7DF90EF90FF9062
S1131FE00F911F91CF91DF91089500240A94161642
S1131FF0170618060906089500240A9412161306F3
S1132000140605060895092E0394000C11F4882380
S113201052F0BB0F40F4BF2B11F460FF04C06F5F9C
S11320207F4F8F4F9F4F089557FD9058440F551F72
S113203059F05F3F71F04795880F97FB991F61F046
S11320409F3F79F087950895121613061406551FBD
S1132050F2CF4695F1DF08C0161617061806991F29
S1132060F1CF86957105610508940895E894BB271E
S113207066277727CB0197F908959B01AC0160E0AF
S113208070E080E89FE366C00BD0BDCFAEDF28F0E0
S1132090B3DF18F0952309F07ACF7FCF1124E7CF6F
S11320A0C3DFA0F3959FD1F3950F50E0551F629FB6
S11320B0F001729FBB27F00DB11D639FAA27F00D9D
S11320C0B11DAA1F649F6627B00DA11D661F829FC4
S11320D02227B00DA11D621F739FB00DA11D621FA9
S11320E0839FA00D611D221F749F3327A00D611DC6
S11320F0231F849F600D211D822F762F6A2F1124A8
S11321009F5750408AF0E1F088234AF0EE0FFF1FFA
S1132110BB1F661F771F881F91505040A9F79E3F31
S1132120510570F034CFA3CF5F3FECF3983EDCF35E
S1132130869577956795B795F795E7959F5FC1F76E
S1132140FE2B880F911D9695879597F908959B010D
S1132150AC019ACF2FDE57CFCF93DF938230910516
S113216010F482E090E0E0918E03F0918F0320E080
S113217030E0A0E0B0E0309739F140815181481758
S11321805907B8F04817590771F482819381109761
S113219029F013969C938E9312972CC090938F03DF
S11321A080938E0327C02115310531F04217530760
S11321B018F0A901DB0101C0EF019A01BD01DF01A3
S11321C00280F381E02DD7CF21153105F9F0281BCA
S11321D0390B2430310580F48A819B8161157105A6
S11321E021F0FB019383828304C090938F03809337
S11321F08E03FE01329644C0FE01E20FF31F819369
S1132200919322503109398328833AC020918C0359
S113221030918D03232B41F420910201309103016D
S113222030938D0320938C032091000130910101A0
S11322302115310541F42DB73EB740910401509169
S11322400501241B350BE0918C03F0918D03E217FB
S1132250F307A0F42E1B3F0B2817390778F0AC01C5
S11322604E5F5F4F2417350748F04E0F5F1F5093A2
S11322708D0340938C038193919302C0E0E0F0E0DE
S1132280CF01DF91CF910895CF93DF93009709F4A5
S113229087C0FC01329713821282C0918E03D091C1
S11322A08F03209781F420813181280F391F809179
S11322B08C0390918D038217930779F5F0938D0326
S11322C0E0938C036DC0DE0120E030E0AE17BF0761
S11322D050F412964D915C9113979D01411551054F
S11322E009F1DA01F3CFB383A28340815181840FD2
S11322F0951F8A179B0771F48D919C911197840FF8
S1132300951F02969183808312968D919C911397C9
S1132310938382832115310529F4F0938F03E0938D
S11323208E033EC0D9011396FC93EE9312974D9100
S11323305D91A40FB51FEA17FB0779F480819181A1
S1132340840F951F0296D90111969C938E938281D6
S1132350938113969C938E931297E0E0F0E08A8128
S11323609B81009719F0FE01EC01F9CFCE01029692
S113237028813981820F931F20918C0330918D0322
S11323802817390769F4309729F410928F031092B3
S11323908E0302C013821282D0938D03C0938C03E8
S11323A0DF91CF9108958F929F92AF92BF92CF9277
S11323B0DF92EF92FF92CF93DF93EC0168817981F2
S11323C08A819B81611571058105910521F464E27F
S11323D079ED8BE597E02DE133EF41E050E00E9489
S11323E0581549015A019B01AC01A7EAB1E40E94C6
S11323F077156B017C01ACEEB4EFA50194010E944A
S11324008515C60ED71EE81EF91EF7FE06C081E02C
S1132410C81AD108E10880E8F80AC882D982EA8299
S1132420FB82C6019F77DF91CF91FF90EF90DF9001
S1132430CF90BF90AF909F908F9008950E94D3113A
S1132440089586E091E00E94D3110895A0E0B0E0E1
S11324508093060190930701A0930801B0930901AA
S113246008950F931F93CF93DF93EC018B01009793
S113247031F46115710519F480E090E038C06EE024
S113248070E081E090E00E948F14FC010097A1F3BA
S113249080E883830115110571F01387028781E8B1
S11324A083838091900390919103892B21F4F0937D
S11324B09103E09390032097C9F0D187C08783816B
S11324C0826083838091920390919303892B71F4AA
S11324D0F0939303E0939203809194039091950376
S11324E0892B21F4F0939503E0939403CF01DF91BA
S11324F0CF911F910F910895A0E0B0E0E2E8F2E1DE
S11325000C949A15FE01359661917191AF018091F9
S11325109203909193030E94BD12E2E00C94B615CD
S11325200F931F93CF93DF93E0919203F091930362
S1132530238121FF1BC0EC0100E010E08991609130
S1132540920370919303DB011896ED91FC91199716
S1132550882331F00995892B89F30FEF1FEFEECF14
S11325608AE00995892B11F4C80102C08FEF9FEF0F
S1132570DF91CF911F910F910895ACE0B0E0E3ECAF
S1132580F2E10C948A157C016B018A01FC0117822B
S11325901682838181FFBDC1CE0101964C01F701F2
S11325A09381F60193FD859193FF81916F018823B7
S11325B009F4ABC1853239F493FD859193FF819180
S11325C06F01853229F4B70190E00E94C814E7CF67
S11325D0512C312C20E02032A0F48B3269F030F4FD
S11325E0803259F0833269F420612CC08D3239F085
S11325F0803339F4216026C02260246023C028601F
S113260021C027FD27C030ED380F3A3078F426FF7B
S113261006C0FAE05F9E300D1124532E13C08AE0E9
S1132620389E300D1124332E20620CC08E3221F4DA
S113263026FD6BC1206406C08C3611F4206802C0EC
S1132640883641F4F60193FD859193FF81916F01E2
S11326508111C1CF982F9F7D9554933028F40C5F3E
S11326601F4FFFE3F9830DC0833631F0833771F0D8
S1132670833509F05BC022C0F801808189830E5F35
S11326801F4F44244394512C540115C03801F2E0E7
S11326906F0E711CF801A080B18026FF03C0652D68
S11326A070E002C06FEF7FEFC5012C870E94BD145C
S11326B02C0183012C852F77222E17C03801F2E0DC
S11326C06F0E711CF801A080B18026FF03C0652D38
S11326D070E002C06FEF7FEFC5012C870E94AB143E
S11326E02C012C852068222E830123FC1BC0832D02
S11326F090E048165906B0F4B70180E290E00E94D9
S1132700C8143A94F4CFF50127FC859127FE8191F2
S11327105F01B70190E00E94C81431103A94F1E0CF
S11327204F1A51084114510471F7E5C0843611F071
S1132730893639F5F80127FF07C0608171818281EC
S113274093810C5F1F4F08C060817181882777FDDA
S11327508095982F0E5F1F4F2F76B22E97FF09C0DA
S113276090958095709561957F4F8F4F9F4F20680E
S1132770B22E2AE030E0A4010E94FA14A82EA81870
S113278044C0853729F42F7EB22E2AE030E025C0DC
S1132790F22FF97FBF2E8F36C1F018F4883579F007
S11327A0B4C0803719F0883721F0AFC02F2F2061D3
S11327B0B22EB4FE0DC08B2D8460B82E09C024FF48
S11327C00AC09F2F9660B92E06C028E030E005C0ED
S11327D020E130E002C020E132E0F801B7FE07C09A
S11327E060817181828193810C5F1F4F06C060817B
S11327F0718180E090E00E5F1F4FA4010E94FA14E3
S1132800A82EA818FB2DFF77BF2EB6FE0BC02B2DCC
S11328102E7FA51450F4B4FE0AC0B2FC08C02B2DC0
S11328202E7E05C07A2C2B2D03C07A2C01C0752C6A
S113283024FF0DC0FE01EA0DF11D8081803311F4E7
S1132840297E09C022FF06C07394739404C0822FAA
S1132850867809F0739423FD13C020FF06C05A2C18
S1132860731418F4530C5718732C731468F4B701C9
S113287080E290E02C870E94C81473942C85F5CFD5
S1132880731410F4371801C0312C24FF12C0B7019F
S113289080E390E02C870E94C8142C8522FF17C087
S11328A021FF03C088E590E002C088E790E0B7010B
S11328B00CC0822F867859F021FD02C080E201C04D
S11328C08BE227FD8DE2B70190E00E94C814A514A5
S11328D038F4B70180E390E00E94C8145A94F7CF0B
S11328E0AA94F401EA0DF11D8081B70190E00E94E1
S11328F0C814A110F5CF332009F451CEB70180E2FA
S113290090E00E94C8143A94F6CFF701868197812B
S113291002C08FEF9FEF2C96E2E10C94A6150F9363
S11329201F93CF93DF93869F8001879F100D969FFF
S1132930100D1124C8010E94AC10EC01009729F07D
S1132940A80160E070E00E94B614CE01DF91CF913F
S11329501F910F910895FC01059061507040011082
S1132960D8F7809590958E0F9F1F0895DC0101C0C4
S11329706D9341505040E0F70895FC016150704060
S113298001900110D8F7809590958E0F9F1F0895A0
S11329900F931F93CF93DF93182F092FEB018B8194
S11329A081FD03C08FEF9FEF20C082FF10C04E81D6
S11329B05F812C813D81421753077CF4E881F981C2
S11329C09F012F5F3F4F39832883108306C0E8851A
S11329D0F985812F0995892B29F72E813F812F5F56
S11329E03F4F3F832E83812F902FDF91CF911F91F3
S11329F00F910895FA01AA27283051F1203181F16D
S1132A00E8946F936E7F6E5F7F4F8F4F9F4FAF4FF2
S1132A10B1E03ED0B4E03CD0670F781F891F9A1F05
S1132A20A11D680F791F8A1F911DA11D6A0F711DB9
S1132A30811D911DA11D20D009F468943F912AE0C5
S1132A40269F11243019305D3193DEF6CF010895AD
S1132A50462F4770405D4193B3E00FD0C9F7F6CFDE
S1132A60462F4F70405D4A3318F0495D31FD4052A6
S1132A70419302D0A9F7EACFB4E0A695979587953C
S1132A8077956795BA95C9F700976105710508951B
S1132A909B01AC010A2E06945795479537952795C7
S1132AA0BA95C9F7620F731F841F951FA01D08955F
S1132AB0052E97FB1EF400940E946F1557FD07D056
S1132AC00E94C11507FC03D04EF40C946F15509569
S1132AD04095309521953F4F4F4F5F4F0895909506
S1132AE08095709561957F4F8F4F9F4F08950E94F9
S1132AF0E315A59F900DB49F900DA49F800D911D8B
S1132B0011240895B7FF0C9477150E947715821B42
S1132B10930B08952F923F924F925F926F927F9200
S1132B208F929F92AF92BF92CF92DF92EF92FF92D9
S1132B300F931F93CF93DF93CDB7DEB7CA1BDB0B85
S1132B400FB6F894DEBF0FBECDBF09942A8839882A
S1132B5048885F846E847D848C849B84AA84B98431
S1132B60C884DF80EE80FD800C811B81AA81B9813D
S1132B70CE0FD11D0FB6F894DEBF0FBECDBFED0151
S1132B800895A1E21A2EAA1BBB1BFD010DC0AA1FAA
S1132B90BB1FEE1FFF1FA217B307E407F50720F0C2
S1132BA0A21BB30BE40BF50B661F771F881F991F3D
S1132BB01A9469F760957095809590959B01AC0186
S1132BC0BD01CF010895A29FB001B39FC001A39F8F
S1132BD0700D811D1124911DB29F700D811D112452
S10B2BE0911D0895F894FFCF44
S1132BE80000960320000100000008000000020015
S1132BF8000000280B00000000582D706F736974E2
S1132C08696F6E3A2025640A00592D706F736974D0
S1132C18696F6E3A2025640A00506C617920536EFE
S1132C28616B65002D2D2D2048454C50202D2D2DF0
S1132C38005573652074686520726967687420207C
S1132C4820736C6964657220746F206E6176692DD7
S1132C5820676174652E20546F2061646A757374EB
S1132C682074686520616E67656C20757365202023
S1132C7820746865206A6F79737469636B2E2020E9
S1132C8820547279206E6F7420746F206C6F6F7388
S1132C98657468652062616C6C2E20474C002020A6
S1132CA8002D3E004D61696E204D656E7500506CB7
S1132CB8617920506F6E67005265706C61793F00CE
S1132CC859657321004E6F3D28004469666669633F
S1132CD8756C74790045617379004D656469756D27
S1132CE800496E73616E650048656C700020202091
S1132CF8476F6F64206C75636B00202020686176D1
S1132D08652066756E21002D2D2047616D65206F45
S1132D18766572202D2D0073636F72653A202564E1
S1132D28004265666F7265206C696D69747300474B
S1132D38616D65206F7665722073657420696E20F5
S1132D48626F726465722063617365732000476102
S1132D586D65206F7665722073657420696E2074C2
S1132D6861696C20636F6C6C6973696F6E200063B2
S1132D78757272656E7420646972656374696F6EC6
S1132D883A2025640A005374617274696E6720538B
S1132D9852414D20746573742E2E2E005352414DAA
S1132DA8207465737420636F6D706C65746564203A
S1132DB8776974680A253464206572726F727320A7
S1132DC8696E207772697465207068617365206123
S1132DD86E640A253464206572726F7273696E209A
S1132DE872657472696576616C2070686173650ACE
S1052DF80A00CB
S9030000FC
